:100000000C9434000C943E000C943E000C943E0082
:100010000C943E000C943E000C943E000C943E0068
:100020000C943E000C943E000C943E000C943E0058
:100030000C943E000C943E000C943E000C943E0048
:100040000C943E000C943E000C943E000C943E0038
:100050000C943E000C943E000C943E000C943E0028
:100060000C943E000C943E0011241FBECFEFD8E04C
:10007000DEBFCDBF0E944D000C946C000C940000BC
:100080008BB186958BB95F9A08958BB1880F8BB928
:1000900008958FEF8AB91BB808950E944900C8E0FF
:1000A0000E9440002FEF83EC99E021508040904067
:1000B000E1F700C00000CA9599F7C8E00E9445002A
:1000C0002FEF83EC99E0215080409040E1F700C091
:0C00D0000000CA9599F7E3CFF894FFCF29
:00000001FF
