:100000000C9434000C9449000C9449000C94490061
:100010000C9449000C9449000C9449000C9449003C
:100020000C9449000C9449000C9449000C9449002C
:100030000C9449000C9449000C9449000C9449001C
:100040000C9449000C9449000C9449000C9449000C
:100050000C9449000C9449000C9449000C944900FC
:100060000C9449000C94490011241FBECFEFD8E036
:10007000DEBFCDBF11E0A0E0B1E0E4ECF0E002C0F3
:1000800005900D92A830B107D9F70E944B000C944F
:1000900060000C9400008FEF8AB9E0E0F1E08191FC
:1000A00080958BB92FEF82E597E0215080409040FA
:1000B000E1F700C0000021E0E830F20781F7EDCF62
:0400C000F894FFCFE2
:0800C40018244281422455AAD0
:00000001FF
