:100000000C9434000C943E000C943E000C943E0082
:100010000C943E000C943E000C943E000C943E0068
:100020000C943E000C943E000C943E000C943E0058
:100030000C943E000C943E000C943E000C943E0048
:100040000C943E000C943E000C943E000C943E0038
:100050000C943E000C943E000C943E000C943E0028
:100060000C943E000C943E0011241FBECFEFD8E04C
:10007000DEBFCDBF0E9459000C945E000C940000BE
:100080001092C00088E08093C10087E28093C20094
:1000900087E690E09093C5008093C400089583E5BF
:1000A0008093C6008FE39FE10197F1F700C0000045
:1000B00008950E9440000E944F00FDCFF894FFCFAA
:00000001FF
