:100000000C9434000C9449000C9449000C94490061
:100010000C9449000C9449000C9449000C9449003C
:100020000C9449000C9449000C9449000C9449002C
:100030000C9449000C9449000C9449000C9449001C
:100040000C9449000C9449000C9449000C9449000C
:100050000C9449000C9449000C9449000C944900FC
:100060000C9449000C94490011241FBECFEFD8E036
:10007000DEBFCDBF11E0A0E0B1E0EAEFF0E002C0EA
:1000800005900D92A031B107D9F70E946E000C9433
:100090007B000C9400001092C00088E08093C100A7
:1000A0008EE28093C20087E690E09093C500809333
:1000B000C40008959091C00095FFFCCF8093C600C6
:1000C0000895CF93DF93EC018881811103C0DF9104
:1000D000CF91089521960E945A00F6CF0E944B00BE
:1000E00080E091E00E9461008FE19EE40197F1F7CA
:0A00F00000C00000F5CFF894FFCF28
:1000FA004D656E736167656D0000000000000000C9
:00000001FF
