:100000000C9434000C943E000C943E000C943E0082
:100010000C943E000C943E000C943E000C943E0068
:100020000C943E000C943E000C943E000C943E0058
:100030000C943E000C943E000C943E000C943E0048
:100040000C943E000C943E000C943E000C943E0038
:100050000C943E000C943E000C943E000C943E0028
:100060000C943E000C943E0011241FBECFEFD8E04C
:10007000DEBFCDBF0E9451000C945D000C940000C7
:1000800080E58CBD81E08DBD98E294B987B9409A36
:10009000089540988EBD0DB407FEFDCF8EB5409AF1
:1000A00008950E94400085E40E9449008FE99FE086
:0E00B0000197F1F700C00000F6CFF894FFCFE3
:00000001FF
