:100000000C9434000C943E000C943E000C943E0082
:100010000C943E000C943E000C943E000C943E0068
:100020000C943E000C943E000C943E000C943E0058
:100030000C943E000C943E000C943E000C943E0048
:100040000C943E000C943E000C943E000C943E0038
:100050000C943E000C943E000C943E000C943E0028
:100060000C943E000C943E0011241FBECFEFD8E04C
:10007000DEBFCDBF0E9447000C9452000C940000DC
:1000800080E58CBD81E08DBD88E284B908950E9431
:10009000400087EC8EBDEFE9FFE03197F1F700C03B
:0800A0000000F8CFF894FFCF37
:00000001FF
