:100000000C9434000C943E000C943E000C945B0065
:100010000C943E000C943E000C943E000C943E0068
:100020000C943E000C943E000C943E000C943E0058
:100030000C943E000C943E000C943E000C943E0048
:100040000C943E000C943E000C943E000C943E0038
:100050000C943E000C943E000C943E000C943E0028
:100060000C943E000C943E0011241FBECFEFD8E04C
:10007000DEBFCDBF0E948A000C9490000C9400005B
:1000800084B1807F84B985B18F6085B98AB18FEFE3
:100090008AB9389A08958BB186958BB95F9A08957D
:1000A000E8E6F0E0808181608083EBE6F0E080812B
:1000B0008F60808308951F920F920FB60F921124C4
:1000C0002F933F934F935F936F937F938F939F9360
:1000D000AF93BF93EF93FF93409A2FEF81EE94E09D
:1000E000215080409040E1F700C0000040980E94FD
:1000F0004B00FF91EF91BF91AF919F918F917F91B5
:100100006F915F914F913F912F910F900FBE0F9084
:100110001F9018950E9440000E9450007894FFCFD5
:04012000F894FFCF81
:00000001FF
