:100000000C9434000C9446000C9446000C94670049
:100010000C9446000C9446000C9446000C94460048
:100020000C9446000C9446000C9446000C94460038
:100030000C9446000C9446000C9446000C94460028
:100040000C9446000C9446000C9446000C94460018
:100050000C9446000C9446000C9446000C94460008
:100060000C9446000C94460011241FBECFEFD8E03C
:10007000DEBFCDBF21E0A0E0B1E001C01D92A43001
:10008000B207E1F70E949F000C94A5000C940000B9
:1000900084B1807F84B985B18F6085B98AB18FEFD3
:1000A0008AB9389A08958BB186958BB95F9A08956D
:1000B0008BB1880F8BB90895E8E6F0E0808181600C
:1000C0008083EBE6F0E080818F60808308951F924B
:1000D0000F920FB60F9211242F933F934F935F937C
:1000E0006F937F938F939F93AF93BF93EF93FF9300
:1000F00093B1917080910301892B811102C00E94FC
:10010000530093B1947080910101892B811102C039
:100110000E94580088B191E0892788B9FF91EF913A
:10012000BF91AF919F918F917F916F915F914F910F
:100130003F912F910F900FBE0F901F9018950E9426
:0E01400048000E945C007894FFCFF894FFCF37
:00000001FF
