:100000000C9434000C9446000C9446000C9463004D
:100010000C9446000C9446000C9446000C94460048
:100020000C9446000C9446000C9446000C94460038
:100030000C9446000C9446000C9446000C94460028
:100040000C9446000C9446000C9446000C94460018
:100050000C9446000C9446000C9446000C94460008
:100060000C9446000C94460011241FBECFEFD8E03C
:10007000DEBFCDBF21E0A0E0B1E001C01D92A43001
:10008000B207E1F70E9499000C949F000C940000C5
:1000900084B1807F84B985B18F6085B98AB18FEFD3
:1000A0008AB9389A08958BB186958BB95F9A08956D
:1000B000E8E6F0E0808181608083EBE6F0E080811B
:1000C0008F60808308951F920F920FB60F921124B4
:1000D0002F933F934F935F936F937F938F939F9350
:1000E000AF93BF93EF93FF938091030118991CC0C6
:1000F000811105C081E0809303010E94530088B103
:1001000091E0892788B9FF91EF91BF91AF919F91BD
:100110008F917F916F915F914F913F912F910F90B0
:100120000FBE0F901F901895813049F71092030170
:10013000E6CF0E9448000E9458007894FFCFF894C0
:02014000FFCFEF
:00000001FF
