:100000000C9434000C943E000C943E000C943E0082
:100010000C943E000C943E000C943E000C943E0068
:100020000C943E000C943E000C943E000C943E0058
:100030000C943E000C943E000C943E000C943E0048
:100040000C943E000C943E000C943E000C943E0038
:100050000C943E000C943E000C943E000C943E0028
:100060000C943E000C943E0011241FBECFEFD8E04C
:10007000DEBFCDBF0E9440000C9459000C940000DC
:10008000259A53984B9BFECF2D9A2FEF81EE94E04B
:10009000215080409040E1F700C000002D982FEFE4
:1000A00081EF9BE2215080409040E1F700C00000CA
:0600B000E9CFF894FFCF38
:00000001FF
