:100000000C9434000C943E000C943E000C943E0082
:100010000C943E000C943E000C943E000C943E0068
:100020000C943E000C943E000C943E000C943E0058
:100030000C943E000C943E000C943E000C943E0048
:100040000C943E000C943E000C945B000C943E001B
:100050000C943E000C943E000C943E000C943E0028
:100060000C943E000C943E0011241FBECFEFD8E04C
:10007000DEBFCDBF0E9475000C94BE000C94000042
:100080001092C00020E92093C1002EE22093C2000C
:100090009C0140E050E060E472E48FE090E00E9458
:1000A0007D00215030403093C5002093C400089556
:1000B00083E087B908951F921FB61F9211248F9372
:1000C0009F938091C6008D3471F4409A8FE99FE030
:1000D0000197F1F700C0000018B89F918F911F9011
:1000E0001FBE1F901895419AF1CF83E087B980E831
:1000F00095E20E9440007894FFCF052E97FB1EF4F6
:1001000000940E94940057FD07D00E949C0007FCB9
:1001100003D04EF40C949400509540953095219561
:100120003F4F4F4F5F4F0895909580957095619523
:100130007F4F8F4F9F4F0895A1E21A2EAA1BBB1B22
:10014000FD010DC0AA1FBB1FEE1FFF1FA217B307A3
:10015000E407F50720F0A21BB30BE40BF50B661FB9
:10016000771F881F991F1A9469F76095709580957D
:1001700090959B01AC01BD01CF010895F894FFCF8C
:00000001FF
