:100000000C9434000C943E000C943E000C943E0082
:100010000C943E000C943E000C943E000C943E0068
:100020000C943E000C943E000C943E000C943E0058
:100030000C943E000C943E000C943E000C943E0048
:100040000C943E000C943E000C943E000C943E0038
:100050000C943E000C943E000C943E000C943E0028
:100060000C943E000C943E0011241FBECFEFD8E04C
:10007000DEBFCDBF0E945B000C94B5000C94000065
:100080001092C00020E12093C1002EE22093C20014
:100090009C0140E050E060E472E48FE090E00E9458
:1000A0007400215030403093C5002093C40008955F
:1000B00083E087B9089583E087B980E895E20E94DC
:1000C00040008091C00087FFFCCF8091C6008D3436
:1000D00049F4409A8FE99FE00197F1F700C00000D2
:1000E00018B8EFCF419AF6CF052E97FB1EF4009477
:1000F0000E948B0057FD07D00E94930007FC03D09D
:100100004EF40C948B0050954095309521953F4FBF
:100110004F4F5F4F089590958095709561957F4FF3
:100120008F4F9F4F0895A1E21A2EAA1BBB1BFD0102
:100130000DC0AA1FBB1FEE1FFF1FA217B307E407C6
:10014000F50720F0A21BB30BE40BF50B661F771F1E
:10015000881F991F1A9469F76095709580959095FE
:0E0160009B01AC01BD01CF010895F894FFCFC3
:00000001FF
