:100000000C9434000C9451000C9451000C94510049
:100010000C9451000C9451000C9451000C9451001C
:100020000C9451000C9451000C9451000C9451000C
:100030000C9451000C9451000C9451000C945100FC
:100040000C9451000C9451000C946E000C945100CF
:100050000C9451000C9451000C9451000C945100DC
:100060000C9451000C94510011241FBECFEFD8E026
:10007000DEBFCDBF11E0A0E0B1E0E8E1F2E002C0F8
:1000800005900D92A830B107D9F721E0A8E0B1E0C2
:1000900001C01D92AB31B207E1F70E949F000C94A2
:1000A0000A010C9400001092C00020E92093C100C6
:1000B0002EE22093C2009C0140E050E060E472E434
:1000C0008FE090E00E94C200215030403093C50084
:1000D0002093C400089583E087B908951F921FB646
:1000E0001F9211242F934F935F938F939F93EF93BE
:1000F000FF932091C6008091090190910A01AC0103
:100100004F5F5F4F8F30910511F440E050E0855F05
:100110009E4FFC0120834093090150930A012A302D
:1001200019F481E080930801FF91EF919F918F91E5
:100130005F914F912F911F901FBE1F90189583E0E4
:1001400087B980E895E20E94530078942BE031E073
:1001500040E051E080910801811101C0FFCF109271
:100160000801D901FA010E940301892B49F4409A40
:100170008FE39CE90197F1F700C0000018B8EACFBF
:10018000419AF6CF052E97FB1EF400940E94D900E9
:1001900057FD07D00E94E10007FC03D04EF40C94F9
:1001A000D90050954095309521953F4F4F4F5F4F67
:1001B000089590958095709561957F4F8F4F9F4FD3
:1001C0000895A1E21A2EAA1BBB1BFD010DC0AA1F98
:1001D000BB1FEE1FFF1FA217B307E407F50720F0B0
:1001E000A21BB30BE40BF50B661F771F881F991F2B
:1001F0001A9469F760957095809590959B01AC0174
:10020000BD01CF0108958D91019080190110D9F39E
:08021000990B0895F894FFCF4B
:080218004D6573736167650019
:00000001FF
